{"abi":[{"type":"function","name":"takeYourTurn","inputs":[{"name":"codePrix","type":"address","internalType":"contract CodePrix"},{"name":"allCars","type":"tuple[]","internalType":"struct CodePrix.CarData[]","components":[{"name":"balance","type":"uint32","internalType":"uint32"},{"name":"speed","type":"uint32","internalType":"uint32"},{"name":"y","type":"uint32","internalType":"uint32"},{"name":"shield","type":"uint32","internalType":"uint32"},{"name":"car","type":"address","internalType":"contract Car"}]},{"name":"ourCarIndex","type":"uint256","internalType":"uint256"}],"outputs":[],"stateMutability":"nonpayable"}],"bytecode":{"object":"0x60806040526004600055600060015534801561001a57600080fd5b506112248061002a6000396000f3fe608060405234801561001057600080fd5b506004361061002b5760003560e01c80634b76d2de14610030575b600080fd5b61004361003e366004610f53565b610045565b005b600083838381811061005957610059610fe1565b905060a0020180360381019061006f9190611029565b905060008484600081811061008657610086610fe1565b905060a0020180360381019061009c9190611029565b6040517f503a69820000000000000000000000000000000000000000000000000000000081526015600482015290915073ffffffffffffffffffffffffffffffffffffffff87169063503a698290602401602060405180830381865afa15801561010a573d6000803e3d6000fd5b505050506040513d601f19601f8201168201806040525081019061012e91906110e0565b825163ffffffff1611156101d3576040517f361401f40000000000000000000000000000000000000000000000000000000081526015600482015273ffffffffffffffffffffffffffffffffffffffff87169063361401f4906024016020604051808303816000875af11580156101a9573d6000803e3d6000fd5b505050506040513d601f19601f820116820180604052508101906101cd91906110e0565b506102a9565b6000610212876107d085600001516101eb9190611128565b63ffffffff168973ffffffffffffffffffffffffffffffffffffffff1663503a6982610457565b905060028111156102a75773ffffffffffffffffffffffffffffffffffffffff871663361401f461024460028461114d565b6040518263ffffffff1660e01b815260040161026291815260200190565b6020604051808303816000875af1158015610281573d6000803e3d6000fd5b505050506040513d601f19601f820116820180604052508101906102a591906110e0565b505b505b6000548311156103f9576040517f54192e410000000000000000000000000000000000000000000000000000000081526001600482015260009073ffffffffffffffffffffffffffffffffffffffff8816906354192e4190602401602060405180830381865afa158015610321573d6000803e3d6000fd5b505050506040513d601f19601f8201168201806040525081019061034591906110e0565b905080836000015163ffffffff16106103f7576040517f4e7444c40000000000000000000000000000000000000000000000000000000081526001600482015273ffffffffffffffffffffffffffffffffffffffff881690634e7444c4906024016020604051808303816000875af11580156103c5573d6000803e3d6000fd5b505050506040513d601f19601f820116820180604052508101906103e991906110e0565b505050600082905550610451565b505b6000826040015163ffffffff166103e8610413919061114d565b90506101f4826040015163ffffffff161061043b57610436878787868886610556565b610448565b6104488783858785610ac1565b50505060008190555b50505050565b6000806103e881805b600c81101561054a5782841161054a576000600261047e8587611164565b610489906001611164565b610493919061117c565b9050806000036104a3575061054a565b60008888836040518263ffffffff1660e01b81526004016104c691815260200190565b602060405180830381865afa1580156104e3573d6000803e3d6000fd5b505050506040513d601f19601f8201168201806040525081019061050791906110e0565b9050898111610527578193508160016105209190611164565b9550610535565b61053260018361114d565b94505b50508080610542906111b7565b915050610460565b50979650505050505050565b81600003610791578573ffffffffffffffffffffffffffffffffffffffff16635978696661058e83866020015163ffffffff16610ef1565b6040518263ffffffff1660e01b81526004016105ac91815260200190565b602060405180830381865afa1580156105c9573d6000803e3d6000fd5b505050506040513d601f19601f820116820180604052508101906105ed91906110e0565b835163ffffffff16106105ff57600180555b600060015411801561061b57506004836060015163ffffffff16105b80156106d857508573ffffffffffffffffffffffffffffffffffffffff1663597869668460600151600461064f9190611128565b6040517fffffffff0000000000000000000000000000000000000000000000000000000060e084901b16815263ffffffff919091166004820152602401602060405180830381865afa1580156106a9573d6000803e3d6000fd5b505050506040513d601f19601f820116820180604052508101906106cd91906110e0565b835163ffffffff1610155b1561078c578573ffffffffffffffffffffffffffffffffffffffff1663728313c98460600151600461070a9190611128565b6040517fffffffff0000000000000000000000000000000000000000000000000000000060e084901b16815263ffffffff9190911660048201526024016020604051808303816000875af1158015610766573d6000803e3d6000fd5b505050506040513d601f19601f8201168201806040525081019061078a91906110e0565b505b610ab9565b6040517f54192e410000000000000000000000000000000000000000000000000000000081526001600482015273ffffffffffffffffffffffffffffffffffffffff8716906354192e4190602401602060405180830381865afa1580156107fc573d6000803e3d6000fd5b505050506040513d601f19601f8201168201806040525081019061082091906110e0565b835163ffffffff16106109e75760008585600081811061084257610842610fe1565b905060a002018036038101906108589190611029565b9050600061087083866020015163ffffffff16610ef1565b9050600061089f836040015163ffffffff166103e861088f919061114d565b846020015163ffffffff16610ef1565b9050808211156109e3576000866020015187604001516108bf91906111ef565b63ffffffff1690506000846020015185604001516108dd91906111ef565b63ffffffff16905060006109066108f6846103e861114d565b8a6020015163ffffffff16610ef1565b610911906001611164565b9050600061092b610924846103e861114d565b6001610ef1565b610936906001611164565b9050808210156109de576040517f4e7444c40000000000000000000000000000000000000000000000000000000081526001600482015273ffffffffffffffffffffffffffffffffffffffff8e1690634e7444c4906024016020604051808303816000875af11580156109ad573d6000803e3d6000fd5b505050506040513d601f19601f820116820180604052508101906109d191906110e0565b5050505050505050610ab9565b505050505b5050505b6000610a1987856000015163ffffffff168973ffffffffffffffffffffffffffffffffffffffff1663503a6982610457565b90506002811115610ab7576040517f361401f40000000000000000000000000000000000000000000000000000000081526004810182905273ffffffffffffffffffffffffffffffffffffffff88169063361401f4906024016020604051808303816000875af1158015610a91573d6000803e3d6000fd5b505050506040513d601f19601f82011682018060405250810190610ab591906110e0565b505b505b505050505050565b81600003610c13576005836020015163ffffffff16118015610b7757506040517f5978696600000000000000000000000000000000000000000000000000000000815260048082015273ffffffffffffffffffffffffffffffffffffffff861690635978696690602401602060405180830381865afa158015610b48573d6000803e3d6000fd5b505050506040513d601f19601f82011682018060405250810190610b6c91906110e0565b835163ffffffff1610155b15610c0e576040517f728313c900000000000000000000000000000000000000000000000000000000815260048082015273ffffffffffffffffffffffffffffffffffffffff86169063728313c9906024016020604051808303816000875af1158015610be8573d6000803e3d6000fd5b505050506040513d601f19601f82011682018060405250810190610c0c91906110e0565b505b610eea565b6000846040015163ffffffff166103e8610c2d919061114d565b90506000610c4582876020015163ffffffff16610ef1565b905080600003610c53575060015b6000816001610c628287611164565b610c6c919061114d565b610c76919061117c565b905080866020015163ffffffff161015610e15576000866020015163ffffffff1682610ca2919061114d565b6040517f503a69820000000000000000000000000000000000000000000000000000000081526004810182905290915060009073ffffffffffffffffffffffffffffffffffffffff8b169063503a698290602401602060405180830381865afa158015610d13573d6000803e3d6000fd5b505050506040513d601f19601f82011682018060405250810190610d3791906110e0565b905080886000015163ffffffff1610610e0e576000610d60878a6020015163ffffffff16610ef1565b90506000610d6e8886610ef1565b905081811015610e0b576040517f361401f40000000000000000000000000000000000000000000000000000000081526004810185905273ffffffffffffffffffffffffffffffffffffffff8d169063361401f4906024016020604051808303816000875af1158015610de5573d6000803e3d6000fd5b505050506040513d601f19601f82011682018060405250810190610e0991906110e0565b505b50505b5050610ab5565b6000610e4789886000015163ffffffff168b73ffffffffffffffffffffffffffffffffffffffff1663503a6982610457565b90506002811115610ee5576040517f361401f40000000000000000000000000000000000000000000000000000000081526004810182905273ffffffffffffffffffffffffffffffffffffffff8a169063361401f4906024016020604051808303816000875af1158015610ebf573d6000803e3d6000fd5b505050506040513d601f19601f82011682018060405250810190610ee391906110e0565b505b505050505b5050505050565b600081600003610f045750612710610f28565b816001610f118286611164565b610f1b919061114d565b610f25919061117c565b90505b92915050565b73ffffffffffffffffffffffffffffffffffffffff81168114610f5057600080fd5b50565b60008060008060608587031215610f6957600080fd5b8435610f7481610f2e565b9350602085013567ffffffffffffffff80821115610f9157600080fd5b818701915087601f830112610fa557600080fd5b813581811115610fb457600080fd5b88602060a083028501011115610fc957600080fd5b95986020929092019750949560400135945092505050565b7f4e487b7100000000000000000000000000000000000000000000000000000000600052603260045260246000fd5b803563ffffffff8116811461102457600080fd5b919050565b600060a0828403121561103b57600080fd5b60405160a0810181811067ffffffffffffffff82111715611085577f4e487b7100000000000000000000000000000000000000000000000000000000600052604160045260246000fd5b60405261109183611010565b815261109f60208401611010565b60208201526110b060408401611010565b60408201526110c160608401611010565b606082015260808301356110d481610f2e565b60808201529392505050565b6000602082840312156110f257600080fd5b5051919050565b7f4e487b7100000000000000000000000000000000000000000000000000000000600052601160045260246000fd5b600063ffffffff83811690831681811015611145576111456110f9565b039392505050565b60008282101561115f5761115f6110f9565b500390565b60008219821115611177576111776110f9565b500190565b6000826111b2577f4e487b7100000000000000000000000000000000000000000000000000000000600052601260045260246000fd5b500490565b60007fffffffffffffffffffffffffffffffffffffffffffffffffffffffffffffffff82036111e8576111e86110f9565b5060010190565b600063ffffffff80831681851680830382111561120e5761120e6110f9565b0194935050505056fea164736f6c634300080d000a","linkReferences":{}},"methodIdentifiers":{"takeYourTurn(address,(uint32,uint32,uint32,uint32,address)[],uint256)":"4b76d2de"},"id":18}