{"abi":[{"type":"function","name":"takeYourTurn","inputs":[{"name":"prix","type":"address","internalType":"contract CodePrix"},{"name":"allCars","type":"tuple[]","internalType":"struct CodePrix.CarData[]","components":[{"name":"balance","type":"uint32","internalType":"uint32"},{"name":"speed","type":"uint32","internalType":"uint32"},{"name":"y","type":"uint32","internalType":"uint32"},{"name":"shield","type":"uint32","internalType":"uint32"},{"name":"car","type":"address","internalType":"contract Car"}]},{"name":"ourCarIndex","type":"uint256","internalType":"uint256"}],"outputs":[],"stateMutability":"nonpayable"}],"bytecode":{"object":"0x608060405234801561001057600080fd5b506102e3806100206000396000f3fe608060405234801561001057600080fd5b506004361061002b5760003560e01c80634b76d2de14610030575b600080fd5b61004361003e366004610130565b610045565b005b6000838383818110610059576100596101be565b905060a0020180360381019061006f9190610206565b6040517f361401f40000000000000000000000000000000000000000000000000000000081526014600482015290915073ffffffffffffffffffffffffffffffffffffffff86169063361401f4906024016020604051808303816000875af11580156100df573d6000803e3d6000fd5b505050506040513d601f19601f8201168201806040525081019061010391906102bd565b505050505050565b73ffffffffffffffffffffffffffffffffffffffff8116811461012d57600080fd5b50565b6000806000806060858703121561014657600080fd5b84356101518161010b565b9350602085013567ffffffffffffffff8082111561016e57600080fd5b818701915087601f83011261018257600080fd5b81358181111561019157600080fd5b88602060a0830285010111156101a657600080fd5b95986020929092019750949560400135945092505050565b7f4e487b7100000000000000000000000000000000000000000000000000000000600052603260045260246000fd5b803563ffffffff8116811461020157600080fd5b919050565b600060a0828403121561021857600080fd5b60405160a0810181811067ffffffffffffffff82111715610262577f4e487b7100000000000000000000000000000000000000000000000000000000600052604160045260246000fd5b60405261026e836101ed565b815261027c602084016101ed565b602082015261028d604084016101ed565b604082015261029e606084016101ed565b606082015260808301356102b18161010b565b60808201529392505050565b6000602082840312156102cf57600080fd5b505191905056fea164736f6c634300080d000a","linkReferences":{}},"methodIdentifiers":{"takeYourTurn(address,(uint32,uint32,uint32,uint32,address)[],uint256)":"4b76d2de"},"id":17}