{"abi":[{"type":"function","name":"buyAcceleration","inputs":[{"name":"amount","type":"uint256","internalType":"uint256"}],"outputs":[{"name":"cost","type":"uint256","internalType":"uint256"}],"stateMutability":"nonpayable"},{"type":"function","name":"buyShell","inputs":[{"name":"amount","type":"uint256","internalType":"uint256"}],"outputs":[{"name":"cost","type":"uint256","internalType":"uint256"}],"stateMutability":"nonpayable"},{"type":"function","name":"buyShield","inputs":[{"name":"amount","type":"uint256","internalType":"uint256"}],"outputs":[{"name":"cost","type":"uint256","internalType":"uint256"}],"stateMutability":"nonpayable"},{"type":"function","name":"cars","inputs":[{"name":"","type":"uint256","internalType":"uint256"}],"outputs":[{"name":"","type":"address","internalType":"contract Car"}],"stateMutability":"view"},{"type":"function","name":"currentCar","inputs":[],"outputs":[{"name":"","type":"address","internalType":"contract Car"}],"stateMutability":"view"},{"type":"function","name":"entropy","inputs":[],"outputs":[{"name":"","type":"uint72","internalType":"uint72"}],"stateMutability":"view"},{"type":"function","name":"getAccelerateCost","inputs":[{"name":"amount","type":"uint256","internalType":"uint256"}],"outputs":[{"name":"sum","type":"uint256","internalType":"uint256"}],"stateMutability":"view"},{"type":"function","name":"getActionsSold","inputs":[{"name":"","type":"uint8","internalType":"enum CodePrix.ActionType"}],"outputs":[{"name":"","type":"uint256","internalType":"uint256"}],"stateMutability":"view"},{"type":"function","name":"getAllCarData","inputs":[],"outputs":[{"name":"results","type":"tuple[]","internalType":"struct CodePrix.CarData[]","components":[{"name":"balance","type":"uint32","internalType":"uint32"},{"name":"speed","type":"uint32","internalType":"uint32"},{"name":"y","type":"uint32","internalType":"uint32"},{"name":"shield","type":"uint32","internalType":"uint32"},{"name":"car","type":"address","internalType":"contract Car"}]}],"stateMutability":"view"},{"type":"function","name":"getAllCarDataAndFindCar","inputs":[{"name":"carToFind","type":"address","internalType":"contract Car"}],"outputs":[{"name":"results","type":"tuple[]","internalType":"struct CodePrix.CarData[]","components":[{"name":"balance","type":"uint32","internalType":"uint32"},{"name":"speed","type":"uint32","internalType":"uint32"},{"name":"y","type":"uint32","internalType":"uint32"},{"name":"shield","type":"uint32","internalType":"uint32"},{"name":"car","type":"address","internalType":"contract Car"}]},{"name":"foundCarIndex","type":"uint256","internalType":"uint256"}],"stateMutability":"view"},{"type":"function","name":"getCarData","inputs":[{"name":"","type":"address","internalType":"contract Car"}],"outputs":[{"name":"balance","type":"uint32","internalType":"uint32"},{"name":"speed","type":"uint32","internalType":"uint32"},{"name":"y","type":"uint32","internalType":"uint32"},{"name":"shield","type":"uint32","internalType":"uint32"},{"name":"car","type":"address","internalType":"contract Car"}],"stateMutability":"view"},{"type":"function","name":"getShellCost","inputs":[{"name":"amount","type":"uint256","internalType":"uint256"}],"outputs":[{"name":"sum","type":"uint256","internalType":"uint256"}],"stateMutability":"view"},{"type":"function","name":"getShieldCost","inputs":[{"name":"amount","type":"uint256","internalType":"uint256"}],"outputs":[{"name":"sum","type":"uint256","internalType":"uint256"}],"stateMutability":"view"},{"type":"function","name":"play","inputs":[{"name":"turnsToPlay","type":"uint256","internalType":"uint256"}],"outputs":[],"stateMutability":"nonpayable"},{"type":"function","name":"register","inputs":[{"name":"car","type":"address","internalType":"contract Car"}],"outputs":[],"stateMutability":"nonpayable"},{"type":"function","name":"state","inputs":[],"outputs":[{"name":"","type":"uint8","internalType":"enum CodePrix.State"}],"stateMutability":"view"},{"type":"function","name":"turns","inputs":[],"outputs":[{"name":"","type":"uint16","internalType":"uint16"}],"stateMutability":"view"},{"type":"event","name":"Accelerated","inputs":[{"name":"turn","type":"uint256","indexed":true,"internalType":"uint256"},{"name":"car","type":"address","indexed":true,"internalType":"contract Car"},{"name":"amount","type":"uint256","indexed":false,"internalType":"uint256"},{"name":"cost","type":"uint256","indexed":false,"internalType":"uint256"}],"anonymous":false},{"type":"event","name":"RaceWon","inputs":[{"name":"turn","type":"uint256","indexed":true,"internalType":"uint256"},{"name":"winner","type":"address","indexed":true,"internalType":"contract Car"}],"anonymous":false},{"type":"event","name":"Registered","inputs":[{"name":"turn","type":"uint256","indexed":true,"internalType":"uint256"},{"name":"car","type":"address","indexed":true,"internalType":"contract Car"}],"anonymous":false},{"type":"event","name":"Shelled","inputs":[{"name":"turn","type":"uint256","indexed":true,"internalType":"uint256"},{"name":"attacker","type":"address","indexed":true,"internalType":"contract Car"},{"name":"target","type":"address","indexed":true,"internalType":"contract Car"},{"name":"amount","type":"uint256","indexed":false,"internalType":"uint256"},{"name":"cost","type":"uint256","indexed":false,"internalType":"uint256"}],"anonymous":false},{"type":"event","name":"Shielded","inputs":[{"name":"turn","type":"uint256","indexed":true,"internalType":"uint256"},{"name":"car","type":"address","indexed":true,"internalType":"contract Car"},{"name":"amount","type":"uint256","indexed":false,"internalType":"uint256"},{"name":"cost","type":"uint256","indexed":false,"internalType":"uint256"}],"anonymous":false},{"type":"event","name":"TurnCompleted","inputs":[{"name":"turn","type":"uint256","indexed":true,"internalType":"uint256"},{"name":"cars","type":"tuple[]","indexed":false,"internalType":"struct CodePrix.CarData[]","components":[{"name":"balance","type":"uint32","internalType":"uint32"},{"name":"speed","type":"uint32","internalType":"uint32"},{"name":"y","type":"uint32","internalType":"uint32"},{"name":"shield","type":"uint32","internalType":"uint32"},{"name":"car","type":"address","internalType":"contract Car"}]},{"name":"acceleratePrice","type":"uint256","indexed":false,"internalType":"uint256"},{"name":"shellPrice","type":"uint256","indexed":false,"internalType":"uint256"},{"name":"shieldPrice","type":"uint256","indexed":false,"internalType":"uint256"}],"anonymous":false}],"bytecode":{"object":"0x60806040526000805462ffff00191661010017905534801561002057600080fd5b5061272d806100306000396000f3fe608060405234801561001057600080fd5b506004361061011b5760003560e01c8063503a6982116100b2578063728313c911610081578063c19d93fb11610066578063c19d93fb1461037a578063f7746e3614610394578063f9fa47ee146103a757600080fd5b8063728313c9146102a55780639d18e79f146102b857600080fd5b8063503a69821461025957806354192e411461026c578063597869661461027f5780636898f82b1461029257600080fd5b8063401c0347116100ee578063401c0347146101d55780634420e486146101fb57806347ce07cc146102105780634e7444c41461024657600080fd5b80630d93582a1461012057806329af11bf1461014a578063361401f41461019f57806337c0d8d3146101c0575b600080fd5b61013361012e366004612462565b6103c7565b604051610141929190612529565b60405180910390f35b60005461017a906c01000000000000000000000000900473ffffffffffffffffffffffffffffffffffffffff1681565b60405173ffffffffffffffffffffffffffffffffffffffff9091168152602001610141565b6101b26101ad36600461254b565b610563565b604051908152602001610141565b6101c8610790565b6040516101419190612564565b6000546101e890610100900461ffff1681565b60405161ffff9091168152602001610141565b61020e610209366004612462565b6108f1565b005b60005461022c906301000000900468ffffffffffffffffff1681565b60405168ffffffffffffffffff9091168152602001610141565b6101b261025436600461254b565b610c40565b6101b261026736600461254b565b6110c9565b6101b261027a36600461254b565b611157565b6101b261028d36600461254b565b6111e1565b61020e6102a036600461254b565b61126a565b6101b26102b336600461254b565b6118a2565b61032d6102c6366004612462565b6003602052600090815260409020805460019091015463ffffffff8083169264010000000081048216926801000000000000000082048316926c010000000000000000000000009092049091169073ffffffffffffffffffffffffffffffffffffffff1685565b6040805163ffffffff9687168152948616602086015292851692840192909252909216606082015273ffffffffffffffffffffffffffffffffffffffff909116608082015260a001610141565b6000546103879060ff1681565b60405161014191906125a6565b61017a6103a236600461254b565b611b5f565b6101b26103b53660046125e7565b60016020526000908152604090205481565b60408051600580825260c0820190925260609160009190816020015b6040805160a0810182526000808252602080830182905292820181905260608201819052608082015282527fffffffffffffffffffffffffffffffffffffffffffffffffffffffffffffffff9092019101816103e35790505091506000610448611b96565b905060005b600581101561055c57600082828151811061046a5761046a612608565b602002602001015190508573ffffffffffffffffffffffffffffffffffffffff168173ffffffffffffffffffffffffffffffffffffffff16036104ab578193505b73ffffffffffffffffffffffffffffffffffffffff808216600090815260036020908152604091829020825160a081018452815463ffffffff808216835264010000000082048116948301949094526801000000000000000081048416948201949094526c010000000000000000000000009093049091166060830152600101549091166080820152855186908490811061054857610548612608565b60209081029190910101525060010161044d565b5050915091565b6000600160005460ff16600281111561057e5761057e612577565b146105ea576040517f08c379a000000000000000000000000000000000000000000000000000000000815260206004820152600f60248201527f47414d455f4e4f545f414354495645000000000000000000000000000000000060448201526064015b60405180910390fd5b6000546c01000000000000000000000000900473ffffffffffffffffffffffffffffffffffffffff16331461067b576040517f08c379a000000000000000000000000000000000000000000000000000000000815260206004820152600f60248201527f4e4f545f43555252454e545f434152000000000000000000000000000000000060448201526064016105e1565b610684826110c9565b33600090815260036020526040902090915061069f82611dd5565b815482906000906106b790849063ffffffff16612637565b82546101009290920a63ffffffff81810219909316918316021790915582547fffffffffffffffffffffffffffffffffffffffffffffffff00000000ffffffff811664010000000091829004831687019092160217825550826001600080600281111561072657610726612577565b81526020808201929092526040908101600090812080549490940190935591548251868152918201859052339261010090910461ffff16917ff7b74f6ee5bd099d62edcf9cbfcc1e3948b3073fc223e723d23c669f6360ed1391015b60405180910390a350919050565b60408051600580825260c08201909252606091816020015b6040805160a0810182526000808252602080830182905292820181905260608201819052608082015282527fffffffffffffffffffffffffffffffffffffffffffffffffffffffffffffffff9092019101816107a8579050509050600061080d611b96565b905060005b60058110156108ec576003600083838151811061083157610831612608565b60209081029190910181015173ffffffffffffffffffffffffffffffffffffffff9081168352828201939093526040918201600020825160a081018452815463ffffffff808216835264010000000082048116948301949094526801000000000000000081048416948201949094526c01000000000000000000000000909304909116606083015260010154909116608082015283518490839081106108d9576108d9612608565b6020908102919091010152600101610812565b505090565b73ffffffffffffffffffffffffffffffffffffffff8181166000908152600360205260409020600101541615610983576040517f08c379a000000000000000000000000000000000000000000000000000000000815260206004820152600f60248201527f444f55424c455f5245474953544552000000000000000000000000000000000060448201526064016105e1565b6040805160a081018252613a988152600060208083018281528385018381526060850184815273ffffffffffffffffffffffffffffffffffffffff8089166080880181815281885260039096529786209651875494519351925163ffffffff9081166c01000000000000000000000000027fffffffffffffffffffffffffffffffff00000000ffffffffffffffffffffffff9482166801000000000000000002949094167fffffffffffffffffffffffffffffffff0000000000000000ffffffffffffffff958216640100000000027fffffffffffffffffffffffffffffffffffffffffffffffff00000000000000009097169290911691909117949094179290921692909217919091178455905160019384018054919092167fffffffffffffffffffffffff000000000000000000000000000000000000000091821617909155600280549384018155918290527f405787fa12a823e0f2b7631cc41b3ba8828b3321ca811111fa75cd3aa3bb5ace90920180549092169092179055547ffffffffffffffffffffffffffffffffffffffffffffffffffffffffffffffffb8101610b8f57600080547fffffffffffffffffffffffffffffffffffffffffffffffffffffffffffffff0068ffffffffffffffffff4216630100000002167fffffffffffffffffffffffffffffffffffffffff000000000000000000ffff00909116176001179055610bf9565b60058110610bf9576040517f08c379a000000000000000000000000000000000000000000000000000000000815260206004820152600b60248201527f4d41585f504c415945525300000000000000000000000000000000000000000060448201526064016105e1565b60405173ffffffffffffffffffffffffffffffffffffffff8316906000907f6cd8594df6446610564bf1ea1e804402ea0006dc7b541d3a430d1ea0a62cffd4908290a35050565b6000600160005460ff166002811115610c5b57610c5b612577565b14610cc2576040517f08c379a000000000000000000000000000000000000000000000000000000000815260206004820152600f60248201527f47414d455f4e4f545f414354495645000000000000000000000000000000000060448201526064016105e1565b6000546c01000000000000000000000000900473ffffffffffffffffffffffffffffffffffffffff163314610d53576040517f08c379a000000000000000000000000000000000000000000000000000000000815260206004820152600f60248201527f4e4f545f43555252454e545f434152000000000000000000000000000000000060448201526064016105e1565b81600003610dbd576040517f08c379a000000000000000000000000000000000000000000000000000000000815260206004820152601860248201527f594f555f43414e545f4255595f5a45524f5f5348454c4c53000000000000000060448201526064016105e1565b610dc682611157565b336000908152600360205260409020909150610de182611dd5565b81548290600090610df990849063ffffffff16612637565b82546101009290920a63ffffffff8181021990931691831602179091558254600160008181526020919091527fcc69885fda6bcc1a4ace058b4a62bf5e179ea78fd58a1ccd71c22cc9b688792f8054880190556801000000000000000090910490911691507fffffffffffffffffffffffffffffffffffffffffffffffffffffffffffffffff815b6005811015610f725760006003600060028481548110610ea357610ea3612608565b600091825260208083209091015473ffffffffffffffffffffffffffffffffffffffff9081168452838201949094526040928301909120825160a081018452815463ffffffff8082168352640100000000820481169483019490945268010000000000000000810484169482018590526c01000000000000000000000000900490921660608301526001015490921660808301529091508510610f465750610f6a565b604081015163ffffffff1685900383811015610f6757816080015194508093505b50505b600101610e81565b5073ffffffffffffffffffffffffffffffffffffffff82161561105f5773ffffffffffffffffffffffffffffffffffffffff82166000908152600360205260409020546c01000000000000000000000000900463ffffffff1661105f5773ffffffffffffffffffffffffffffffffffffffff8216600090815260036020526040902054600164010000000090910463ffffffff16111561105f5773ffffffffffffffffffffffffffffffffffffffff8216600090815260036020526040902080547fffffffffffffffffffffffffffffffffffffffffffffffff00000000ffffffff166401000000001790555b600054604080518881526020810188905273ffffffffffffffffffffffffffffffffffffffff851692339261010090910461ffff16917f8bf88a7d93d9907c8bd24e204d8e69d0703a0c1940305ced70d7eff7328535d5910160405180910390a450505050919050565b6000805b8281101561115157611145678ac7230489e800006702c68af0bb140000600060019054906101000a900461ffff1661ffff16846001600080600281111561111657611116612577565b600281111561112757611127612577565b81526020019081526020016000205401671bc16d674ec80000611de8565b909101906001016110cd565b50919050565b6000805b82811015611151576111d5680ad78ebc5ac6200000670494654067e10000600060019054906101000a900461ffff1661ffff168460016000600160028111156111a6576111a6612577565b60028111156111b7576111b7612577565b815260200190815260200160002054016702c68af0bb140000611de8565b9091019060010161115b565b6000805b828110156111515761125e68056bc75e2d63100000670494654067e10000600060019054906101000a900461ffff1661ffff16846001600060028081111561122f5761122f612577565b600281111561124057611240612577565b8152602001908152602001600020540167016345785d8a0000611de8565b909101906001016111e5565b600160005460ff16600281111561128357611283612577565b146112ea576040517f08c379a000000000000000000000000000000000000000000000000000000000815260206004820152600f60248201527f47414d455f4e4f545f414354495645000000000000000000000000000000000060448201526064016105e1565b801561189f576000600280548060200260200160405190810160405280929190818152602001828054801561135557602002820191906000526020600020905b815473ffffffffffffffffffffffffffffffffffffffff16815260019091019060200180831161132a575b50506000805494955061010090940461ffff169392508491506005905083068151811061138457611384612608565b6020026020010151905060008061139a836103c7565b600080546bffffffffffffffffffffffff166c0100000000000000000000000073ffffffffffffffffffffffffffffffffffffffff8816908102919091179091556040517f4b76d2de00000000000000000000000000000000000000000000000000000000815292945090925090634b76d2de90621e848090611425903090879087906004016126b2565b600060405180830381600088803b15801561143f57600080fd5b5087f193505050508015611451575060015b50600080546bffffffffffffffffffffffff1681555b600581101561161857600086828151811061148457611484612608565b60209081029190910181015173ffffffffffffffffffffffffffffffffffffffff81166000908152600390925260409091208054919250906c01000000000000000000000000900463ffffffff16156115405780547fffffffffffffffffffffffffffffffffffffffffffffffffffffffffffffffff63ffffffff6c0100000000000000000000000080840482169290920116027fffffffffffffffffffffffffffffffff00000000ffffffffffffffffffffffff9091161781555b80547fffffffffffffffffffffffffffffffffffffffff00000000ffffffffffffffff8116640100000000820463ffffffff9081166801000000000000000093849004821601169182021782556103e81161160e5760405173ffffffffffffffffffffffffffffffffffffffff83169088907fc6f14878ec67e433439094b7f5f3263c5b11eac0896174ad22cf5c2780d5aebc90600090a35050600080547fffffffffffffffffffffffffffffffffffffffffffffffffffffffffffffff0016600217905550505050505050565b5050600101611467565b50600584066000036117d55760005b60058110156117bf576000805460408051630100000090920468ffffffffffffffffff16602083015201604080518083037fffffffffffffffffffffffffffffffffffffffffffffffffffffffffffffffe00181529190528051602090910120600080547fffffffffffffffffffffffffffffffffffffffff000000000000000000ffffff16630100000068ffffffffffffffffff909316928302178155909150600583900382816116db576116db612683565b068301905060008884815181106116f4576116f4612608565b6020026020010151905088828151811061171057611710612608565b602002602001015189858151811061172a5761172a612608565b602002602001019073ffffffffffffffffffffffffffffffffffffffff16908173ffffffffffffffffffffffffffffffffffffffff16815250508089838151811061177757611777612608565b602002602001019073ffffffffffffffffffffffffffffffffffffffff16908173ffffffffffffffffffffffffffffffffffffffff1681525050505050806001019050611627565b5084516117d39060029060208801906123cc565b505b600080547fffffffffffffffffffffffffffffffffffffffffffffffffffffffffff0000ff166101006001870161ffff16908102919091179091557f7917bddd66506d921f7d884669ba815f5efb81b7719f131306ebe47019d188f4611839610790565b61184360016110c9565b61184d6001611157565b61185760016111e1565b60405161186794939291906126f1565b60405180910390a250507fffffffffffffffffffffffffffffffffffffffffffffffffffffffffffffffff90930192506112ea915050565b50565b6000600160005460ff1660028111156118bd576118bd612577565b14611924576040517f08c379a000000000000000000000000000000000000000000000000000000000815260206004820152600f60248201527f47414d455f4e4f545f414354495645000000000000000000000000000000000060448201526064016105e1565b6000546c01000000000000000000000000900473ffffffffffffffffffffffffffffffffffffffff1633146119b5576040517f08c379a000000000000000000000000000000000000000000000000000000000815260206004820152600f60248201527f4e4f545f43555252454e545f434152000000000000000000000000000000000060448201526064016105e1565b81600003611a1f576040517f08c379a000000000000000000000000000000000000000000000000000000000815260206004820152601960248201527f594f555f43414e545f4255595f5a45524f5f534849454c44530000000000000060448201526064016105e1565b611a28826111e1565b336000908152600360205260409020909150611a4382611dd5565b81548290600090611a5b90849063ffffffff16612637565b82546101009290920a63ffffffff81810219909316918316021790915582546c010000000000000000000000009004811685019150600690821611611aa05780611aa3565b60065b82547fffffffffffffffffffffffffffffffff00000000ffffffffffffffffffffffff166c0100000000000000000000000063ffffffff92909216919091021782555060026000908152600160209081527fd9d16d34ffb15ba3a3d852f0d403e2ce1d691fb54de27ac87cd2f993f3ec330f805486019055905460408051868152928301859052339261010090920461ffff16917f5ca9c31802614108f07c7ec1fb1c96e0bad7fc943d7644a8681a681e074aea459101610782565b60028181548110611b6f57600080fd5b60009182526020909120015473ffffffffffffffffffffffffffffffffffffffff16905081565b60606002805480602002602001604051908101604052809291908181526020018280548015611bfb57602002820191906000526020600020905b815473ffffffffffffffffffffffffffffffffffffffff168152600190910190602001808311611bd0575b5050505050905060005b6005811015611dd157600181015b6005811015611dc85760036000848481518110611c3257611c32612608565b602002602001015173ffffffffffffffffffffffffffffffffffffffff1673ffffffffffffffffffffffffffffffffffffffff16815260200190815260200160002060000160089054906101000a900463ffffffff1663ffffffff1660036000858481518110611ca457611ca4612608565b60209081029190910181015173ffffffffffffffffffffffffffffffffffffffff1682528101919091526040016000205468010000000000000000900463ffffffff161115611dc0576000838381518110611d0157611d01612608565b60200260200101519050838281518110611d1d57611d1d612608565b6020026020010151848481518110611d3757611d37612608565b602002602001019073ffffffffffffffffffffffffffffffffffffffff16908173ffffffffffffffffffffffffffffffffffffffff168152505080848381518110611d8457611d84612608565b602002602001019073ffffffffffffffffffffffffffffffffffffffff16908173ffffffffffffffffffffffffffffffffffffffff1681525050505b600101611c13565b50600101611c05565b5090565b60006401000000008210611dd157600080fd5b6000670de0b6b3a7640000611e6e87611e69611e64611e108a670de0b6b3a764000003611e86565b611e27670de0b6b3a764000060018b010289612144565b670de0b6b3a76400007fffffffffffffffffffffffffffffffffffffffffffffffffffffffffffffffff8c010203670de0b6b3a764000091020590565b612168565b6123a7565b81611e7b57611e7b612683565b049695505050505050565b6000808213611ef1576040517f08c379a000000000000000000000000000000000000000000000000000000000815260206004820152600960248201527f554e444546494e4544000000000000000000000000000000000000000000000060448201526064016105e1565b5060606fffffffffffffffffffffffffffffffff821160071b82811c67ffffffffffffffff1060061b1782811c63ffffffff1060051b1782811c61ffff1060041b1782811c60ff10600390811b90911783811c600f1060021b1783811c909110600190811b90911783811c90911017609f81810383019390931b90921c6c465772b2bbbb5f824b15207a3081018102821d6d0388eaa27412d5aca026815d636e018102821d6d0df99ac502031bf953eff472fdcc018102821d6d13cdffb29d51d99322bdff5f2211018102821d6d0a0f742023def783a307a986912e018102821d6d01920d8043ca89b5239253284e42018102821d6c0b7a86d7375468fac667a0a527016c29508e458543d8aa4df2abee7882018202831d6d0139601a2efabe717e604cbb4894018202831d6d02247f7a7b6594320649aa03aba1018202831d7fffffffffffffffffffffffffffffffffffffff73c0c716a594e00d54e3c4cbc9018202831d7ffffffffffffffffffffffffffffffffffffffdc7b88c420e53a9890533129f6f01820290921d7fffffffffffffffffffffffffffffffffffffff465fda27eb4d63ded474e5f83201027ffffffffffffffff5f6af8f7b3396644f18e157960000000000000000000000000105711340daa0d5f769dba1915cef59f0815a5506027fffffffffffffffffffffffffffffffffffffffffffffffffffffffffffffffa0919091017d0267a36c0c95b3975ab3ee5b203a7614a3f75373f047d803ae7b6687f2b302017d57115e47018c7177eebf7cd370a3356a1b7863008a5ae8028c72b88642840160ae1d90565b670de0b6b3a764000082810290810583148215151661216257600080fd5b05919050565b60007ffffffffffffffffffffffffffffffffffffffffffffffffdb731c958f34d94c1821361219957506000919050565b680755bf798b4a1bf1e5821261220b576040517f08c379a000000000000000000000000000000000000000000000000000000000815260206004820152600c60248201527f4558505f4f564552464c4f57000000000000000000000000000000000000000060448201526064016105e1565b6503782dace9d9604e83901b059150600060606bb17217f7d1cf79abc9e3b39884821b056b80000000000000000000000001901d6bb17217f7d1cf79abc9e3b39881029093037fffffffffffffffffffffffffffffffffffffffdbf3ccf1604d263450f02a550481018102606090811d6d0277594991cfc85f6e2461837cd9018202811d7fffffffffffffffffffffffffffffffffffffe5adedaa1cb095af9e4da10e363c018202811d6db1bbb201f443cf962f1a1d3db4a5018202811d7ffffffffffffffffffffffffffffffffffffd38dc772608b0ae56cce01296c0eb018202811d6e05180bb14799ab47a8a8cb2a527d57016d02d16720577bd19bf614176fe9ea6c10fe68e7fd37d0007b713f765084018402831d9081019084017ffffffffffffffffffffffffffffffffffffffe2c69812cf03b0763fd454a8f7e010290911d6e0587f503bb6ea29d25fcb7401964500190910279d835ebba824c98fb31b83b2ca45c000000000000000000000000010574029d9dc38563c32e5c2f6dc192ee70ef65f9978af30260c3939093039290921c92915050565b81810282158382058314176123bb57600080fd5b670de0b6b3a7640000900592915050565b828054828255906000526020600020908101928215612446579160200282015b8281111561244657825182547fffffffffffffffffffffffff00000000000000000000000000000000000000001673ffffffffffffffffffffffffffffffffffffffff9091161782556020909201916001909101906123ec565b50611dd19291505b80821115611dd1576000815560010161244e565b60006020828403121561247457600080fd5b813573ffffffffffffffffffffffffffffffffffffffff8116811461249857600080fd5b9392505050565b600081518084526020808501945080840160005b8381101561251e578151805163ffffffff9081168952848201518116858a01526040808301518216908a01526060808301519091169089015260809081015173ffffffffffffffffffffffffffffffffffffffff169088015260a090960195908201906001016124b3565b509495945050505050565b60408152600061253c604083018561249f565b90508260208301529392505050565b60006020828403121561255d57600080fd5b5035919050565b602081526000612498602083018461249f565b7f4e487b7100000000000000000000000000000000000000000000000000000000600052602160045260246000fd5b60208101600383106125e1577f4e487b7100000000000000000000000000000000000000000000000000000000600052602160045260246000fd5b91905290565b6000602082840312156125f957600080fd5b81356003811061249857600080fd5b7f4e487b7100000000000000000000000000000000000000000000000000000000600052603260045260246000fd5b600063ffffffff8381169083168181101561267b577f4e487b7100000000000000000000000000000000000000000000000000000000600052601160045260246000fd5b039392505050565b7f4e487b7100000000000000000000000000000000000000000000000000000000600052601260045260246000fd5b73ffffffffffffffffffffffffffffffffffffffff841681526060602082015260006126e1606083018561249f565b9050826040830152949350505050565b608081526000612704608083018761249f565b602083019590955250604081019290925260609091015291905056fea164736f6c634300080d000a","linkReferences":{}},"methodIdentifiers":{"buyAcceleration(uint256)":"361401f4","buyShell(uint256)":"4e7444c4","buyShield(uint256)":"728313c9","cars(uint256)":"f7746e36","currentCar()":"29af11bf","entropy()":"47ce07cc","getAccelerateCost(uint256)":"503a6982","getActionsSold(uint8)":"f9fa47ee","getAllCarData()":"37c0d8d3","getAllCarDataAndFindCar(address)":"0d93582a","getCarData(address)":"9d18e79f","getShellCost(uint256)":"54192e41","getShieldCost(uint256)":"59786966","play(uint256)":"6898f82b","register(address)":"4420e486","state()":"c19d93fb","turns()":"401c0347"},"id":16}